:100000000C942A000C943F000C943F000C943F0089
:100010000C943F000C943F000C943F000C943F0064
:100020000C943F000C943F000C943F000C943F0054
:100030000C943F000C943F000C943F000C943F0044
:100040000C943F000C943F000C943F000C943F0034
:100050000C943F0011241FBECFE5D4E0DEBFCDBF1E
:1000600011E0A0E6B0E0E4E1F4E002C005900D92FA
:10007000A031B107D9F70E9441000C9408020C94FA
:1000800000000F931F93CF93DF9383E00E94A001A2
:1000900081E060E00E94EE0080E690E00E941601A0
:1000A00080E061E00E948E018AE690E00E941601E5
:1000B000C0E0D0E000E010E089E061E00E948E0145
:1000C000CE0163E070E00E9430018CE061E00E94AC
:1000D0008E0183E790E00E941601C8010197F1F7B5
:1000E000C8010197F1F7C8010197F1F7C80101971D
:1000F000F1F72196C336D105F9F681E060E00E9460
:10010000EE0086E790E00E94160180E061E00E9428
:100110008E0182E890E00E94160120E040E050E06D
:10012000CA010197F1F72F5F2436D1F781E060E033
:100130000E94EE0083E990E00E94160180E061E0F9
:100140000E948E018FE990E00E94160120E040E0BD
:1001500050E0CA010197F1F72F5F2436D1F781E013
:1001600060E00E94EE008DEA90E00E94160180E0BF
:1001700061E00E948E018DEB90E00E941601DF91FC
:10018000CF911F910F91089587B3807F87BB969A77
:10019000939881E08A95F1F721E0C49A822F8A959D
:1001A000F1F786B38295807F922F9A95F1F7C498E4
:1001B000922F9A95F1F7C49A922F9A95F1F796B3E8
:1001C000922F9A95F1F7C498922F9A95F1F787FD9F
:1001D000E4CF969887B38F6087BB0895382F662346
:1001E00011F4939801C0939A21E0822F8A95F1F738
:1001F000C49A88B3932F92959F70807F982B98BB59
:10020000822F8A95F1F7C498822F8A95F1F7C49AC4
:1002100088B33F70807F832B88BB822F8A95F1F74C
:10022000C4982A95F1F70E94C4000895CF93DF93F4
:10023000EC0110C0853251F42196888180538830BA
:1002400028F085E261E00E94EE00888161E00E9472
:10025000EE0021968881882369F7DF91CF91089578
:10026000EF92FF920F931F93DF93CF9300D000D0B4
:100270000F92CDB7DEB79C018B01FE01319685E070
:10028000DF011D928A95E9F7FE0135960DC0C9017F
:100290006AE070E00E94E1018083C9016AE070E0D9
:1002A0000E94E1019B0131972115310581F7BFEFD4
:1002B0000F3F1B0779F420E030E0AE014F5F5F4F46
:1002C00002C02F5F3F4FFA01E20FF31F80818823A6
:1002D000C1F304C025E030E0201B310B7E010894FF
:1002E000E11CF11CE20EF31E890109C0F7018191A6
:1002F0007F01805D61E00E94EE000F5F1F4F0530BF
:100300001105A4F30F900F900F900F900F90CF91C5
:10031000DF911F910F91FF90EF900895843178F451
:10032000623031F0633031F0613029F4806403C011
:100330008C5E01C08C5A806860E00E94EE000895D7
:100340001F93CF93DF93182F8CE49DE10197F1F772
:1003500087B38F6087BBBC9A8B9A8E9A88B3807F55
:1003600088BBC4989698939881E0982F9A95F1F756
:10037000C49AC19A982F9A95F1F7C4988A95F1F783
:100380000E94C400812F8C6060E00E94EE0088E231
:1003900060E00E94EE0080E460E00E94EE00CFEC9E
:1003A000D0E0899161E00E94EE0081E0CF30D80773
:1003B000C1F780E060E00E948E01DF91CF911F9134
:1003C000089597FB092E07260AD077FD04D00CD09C
:1003D00006D000201AF4709561957F4F0895F6F7C6
:1003E000909581959F4F0895AA1BBB1B51E107C0B3
:1003F000AA1FBB1FA617B70710F0A61BB70B881FB5
:10040000991F5A95A9F780959095BC01CD01089543
:04041000F894FFCF8E
:10041400436F6E677261747320004C6F6164696E20
:1004240067200025200048656C6C6F20776F726C24
:100434006400427920596F75724E616D652048657C
:100444007265002020202065587472656D65002057
:1004540020456C656374726F6E69637300437573D2
:10046400746F6D204368617220212121002530259D
:100474003125322533202534253525362537000C02
:1004840012120C000000000C1204081E0000000AE6
:1004940015110A040000000305090B0B1818001FAE
:1004A4000E0E040404040401010505151515000EBF
:1004B40011111F1F1F1F000000000000000000009A
:00000001FF
