:100000000C942A000C9447000C9447000C94470071
:100010000C9447000C9447000C9447000C94470044
:100020000C9447000C9447000C9447000C94470034
:100030000C9447000C9447000C9447000C94470024
:100040000C9447000C9447000C9447000C94470014
:100050000C94470011241FBECFE5D4E0DEBFCDBF16
:1000600010E0A0E6B0E0E8E6F6E002C005900D92F0
:10007000A43BB107D9F710E0A4EBB0E001C01D929A
:10008000AC3DB107E1F70E946F010C9432030C9470
:10009000000079BD68BD9BBD8ABD089580E29EE4E5
:1000A00097BD86BD81B3806381BB81B38F6081BB07
:1000B00085E082BB82B382BB8FB5816A8FBD8EB56E
:1000C0008A608EBD08951ABA8FEF8BBB0895009792
:1000D00051F18130910519F421E030E026C08230E1
:1000E000910519F422E030E020C08330910519F425
:1000F00023E030E01AC08430910519F424E030E0A8
:1001000014C08530910519F425E030E00EC086302A
:10011000910519F426E030E008C0079719F427E0AC
:1001200030E003C0089520E030E0C90108958F92C7
:100130009F92AF92BF92CF92DF92EF92FF920F9376
:100140001F93CF93DF93C090B800D090B900E09098
:10015000B400F090B5000091B6001091B7009CEC8F
:10016000A92E90E0B92EC0E0D0E088EE882E83E082
:10017000982ECE010E946700F501819391935F0153
:10018000889D9001899D300D989D300D1124A90105
:100190004C9F90014D9F300D5C9F300D11244427E2
:1001A00037FD4095542FE20EF31E041F151FC80E95
:1001B000D91E2196C830D105E1F6D092B900C0927F
:1001C000B800E092B400F092B5000093B60010932E
:1001D000B700DF91CF911F910F91FF90EF90DF90CB
:1001E000CF90BF90AF909F908F9008952091B800CE
:1001F0003091B900442737FD4095542F6091B400E9
:100200007091B5008091B6009091B7000E94E10214
:10021000B9013093BB002093BA008091CA0090913D
:10022000CB00681B790B7093BD006093BC0080917C
:10023000BE009091BF00860F971F9093BF008093E0
:10024000BE002091C0003091C100AB01421B530B96
:100250005093C3004093C2007093C1006093C000EC
:10026000840F951F860F971F9093C5008093C4003D
:1002700008958091C4009091C50081509F4F34F43F
:1002800081E09FEF9093C5008093C4008091C400EB
:100290009091C5008F3F910539F034F08FEF90E0D9
:1002A0009093C5008093C4002091C4003091C50094
:1002B0008091C8009091C9009093C7008093C600B8
:1002C000821B930B9093730080937200089583E0D8
:1002D0000E948D0281E060E00E94DB0108951ABA5D
:1002E0008FEF8BBB0E944E000E9467010E94970017
:1002F0000E94F6000E9439018091C6009091C700CB
:1003000099BD88BD80917200909173009BBD8ABD9C
:1003100080E060E00E947B0280E690E00E940302A1
:1003200089E060E00E947B0289E690E00E9403027F
:1003300080E061E00E947B028091720090917300E6
:1003400065E070E00E941D0289E061E00E947B028E
:100350008091C6009091C70065E070E00E941D0288
:10036000C5CF84B3807F84BBAE9AAD9881E08A9577
:10037000F1F721E0AC9A822F8A95F1F783B3829549
:10038000807F922F9A95F1F7AC98922F9A95F1F77A
:10039000AC9A922F9A95F1F793B3922F9A95F1F721
:1003A000AC98922F9A95F1F787FDE4CFAE9884B37D
:1003B0008F6084BB0895382F662311F4AD9801C077
:1003C000AD9A21E0822F8A95F1F7AC9A85B3932FED
:1003D00092959F70807F982B95BB822F8A95F1F71D
:1003E000AC98822F8A95F1F7AC9A85B33F70807FE5
:1003F000832B85BB822F8A95F1F7AC982A95F1F76C
:100400000E94B1010895CF93DF93EC0110C08532B3
:1004100051F4219688818053883028F085E261E08C
:100420000E94DB01888161E00E94DB0121968881C6
:10043000882369F7DF91CF910895EF92FF920F9390
:100440001F93DF93CF9300D000D00F92CDB7DEB7CC
:100450009C018B01FE01319685E0DF011D928A959A
:10046000E9F7FE0135960DC0C9016AE070E00E940F
:10047000CE028083C9016AE070E00E94CE029B0137
:1004800031972115310581F7BFEF0F3F1B0779F435
:1004900020E030E0AE014F5F5F4F02C02F5F3F4F63
:1004A000FA01E20FF31F80818823C1F304C025E025
:1004B00030E0201B310B7E010894E11CF11CE20EA0
:1004C000F31E890109C0F70181917F01805D61E020
:1004D0000E94DB010F5F1F4F05301105A4F30F9041
:1004E0000F900F900F900F90CF91DF911F910F9170
:1004F000FF90EF900895843178F4623031F06330EA
:1005000031F0613029F4806403C08C5E01C08C5AE4
:10051000806860E00E94DB0108951F93CF93DF9312
:10052000182F8CE49DE10197F1F784B38F6084BBB1
:10053000A49AA59AA69A85B3807F85BBAC98AE98FD
:10054000AD9881E0982F9A95F1F7AC9AA99A982FD7
:100550009A95F1F7AC988A95F1F70E94B101812F35
:100560008C6060E00E94DB0188E260E00E94DB01B9
:1005700080E460E00E94DB01C4E7D0E0899161E0A3
:100580000E94DB0180E0C43BD807C1F780E060E057
:100590000E947B02DF91CF911F91089597FB092E56
:1005A00007260AD077FD04D027D006D000201AF401
:1005B000709561957F4F0895F6F7909581959F4FBF
:1005C000089597FB092E05260ED057FD04D028D09C
:1005D0000AD0001C38F450954095309521953F4F36
:1005E0004F4F5F4F0895F6F7909580957095619500
:1005F0007F4F8F4F9F4F0895AA1BBB1B51E107C030
:10060000AA1FBB1FA617B70710F0A61BB70B881FA2
:10061000991F5A95A9F780959095BC01CD01089531
:10062000A1E21A2EAA1BBB1BFD010DC0AA1FBB1FF6
:10063000EE1FFF1FA217B307E407F50720F0A21B68
:10064000B30BE40BF50B661F771F881F991F1A94D5
:1006500069F760957095809590959B01AC01BD01FF
:08066000CF010895F894FFCFCB
:100668004C4D20535045454400524D20535045456C
:100678004400C8000C12120C000000000C12040800
:100688001E0000000A15110A040000000305090BEA
:100698000B1818001F0E0E040404040401010505BC
:1006A800151515000E11111F1F1F1F000000000057
:0406B800000000003E
:00000001FF
