:100000000C942A000C9447000C9447000C94470071
:100010000C9447000C9447000C9447000C94470044
:100020000C9447000C9447000C9447000C94470034
:100030000C9447000C9447000C9447000C94470024
:100040000C9447000C9447000C9447000C94470014
:100050000C94470011241FBECFE5D4E0DEBFCDBF16
:1000600010E0A0E6B0E0EEE6F5E002C005900D92EB
:10007000AC3AB107D9F710E0ACEAB0E001C01D928C
:10008000A43DB107E1F70E9414010C94B5020C9451
:10009000000079BD68BD9BBD8ABD089580E29EE4E5
:1000A00097BD86BD81B3806381BB81B38F6081BB07
:1000B00085E082BB82B382BB8FB5816A8FBD8EB56E
:1000C0008A608EBD08951ABA8FEF8BBB0895009792
:1000D00051F18130910519F421E030E026C08230E1
:1000E000910519F422E030E020C08330910519F425
:1000F00023E030E01AC08430910519F424E030E0A8
:1001000014C08530910519F425E030E00EC086302A
:10011000910519F426E030E008C0079719F427E0AC
:1001200030E003C0089520E030E0C90108958F92C7
:100130009F92AF92BF92CF92DF92EF92FF920F9376
:100140001F93CF93DF93C090B000D090B100E090A8
:10015000AC00F090AD000091AE001091AF0094ECB7
:10016000A92E90E0B92EC0E0D0E088EE882E83E082
:10017000982ECE010E946700F501819391935F0153
:10018000889D9001899D300D989D300D1124A90105
:100190004C9F90014D9F300D5C9F300D11242E0D12
:1001A0003F1D79010027F7FC0095102FC80ED91EBE
:1001B0002196C830D105E9F6D092B100C092B000C6
:1001C000E092AC00F092AD000093AE001093AF004F
:1001D000DF91CF911F910F91FF90EF90DF90CF9023
:1001E000BF90AF909F908F9008952091B000309174
:1001F000B100442737FD4095542F6091AC007091B9
:10020000AD008091AE009091AF000E9464023093E7
:10021000B3002093B200089583E00E94100281E0B1
:1002200060E00E945E0108951ABA8FEF8BBB0E94B6
:100230004E000E940C010E9497000E94F50083E08E
:1002400060E00E94FE0180E690E00E94860184E06A
:1002500061E00E94FE018091B2009091B30065E0E0
:1002600070E00E94A001E7CF84B3807F84BBAD9A89
:10027000AE9881E08A95F1F721E0AC9A822F8A95B9
:10028000F1F783B38295807F922F9A95F1F7AC981E
:10029000922F9A95F1F7AC9A922F9A95F1F793B322
:1002A000922F9A95F1F7AC98922F9A95F1F787FDD6
:1002B000E4CFAD9884B38F6084BB0895382F662354
:1002C00011F4AE9801C0AE9A21E0822F8A95F1F721
:1002D000AC9A85B3932F92959F70807F982B95BB96
:1002E000822F8A95F1F7AC98822F8A95F1F7AC9A14
:1002F00085B33F70807F832B85BB822F8A95F1F772
:10030000AC982A95F1F70E9434010895CF93DF93BA
:10031000EC0110C0853251F42196888180538830D9
:1003200028F085E261E00E945E01888161E00E9420
:100330005E0121968881882369F7DF91CF91089526
:10034000EF92FF920F931F93DF93CF9300D000D0D3
:100350000F92CDB7DEB79C018B01FE01319685E08F
:10036000DF011D928A95E9F7FE0135960DC0C9019E
:100370006AE070E00E9451028083C9016AE070E087
:100380000E9451029B0131972115310581F7BFEF82
:100390000F3F1B0779F420E030E0AE014F5F5F4F65
:1003A00002C02F5F3F4FFA01E20FF31F80818823C5
:1003B000C1F304C025E030E0201B310B7E0108941E
:1003C000E11CF11CE20EF31E890109C0F7018191C5
:1003D0007F01805D61E00E945E010F5F1F4F05306D
:1003E0001105A4F30F900F900F900F900F90CF91E5
:1003F000DF911F910F91FF90EF900895843178F471
:10040000623031F0633031F0613029F4806403C030
:100410008C5E01C08C5A806860E00E945E01089585
:100420001F93CF93DF93182F8CE49DE10197F1F791
:1004300084B38F6084BBA49AA69AA59A85B3807F63
:1004400085BBAC98AD98AE9881E0982F9A95F1F75E
:10045000AC9AA99A982F9A95F1F7AC988A95F1F7EA
:100460000E943401812F8C6060E00E945E0188E26E
:1004700060E00E945E0180E460E00E945E01CCE6E4
:10048000D0E0899161E00E945E0180E0CC3AD8071B
:10049000C1F780E060E00E94FE01DF91CF911F91E3
:1004A000089597FB092E07260AD077FD04D027D0A0
:1004B00006D000201AF4709561957F4F0895F6F7E5
:1004C000909581959F4F089597FB092E05260ED094
:1004D00057FD04D028D00AD0001C38F45095409520
:1004E000309521953F4F4F4F5F4F0895F6F7909508
:1004F0008095709561957F4F8F4F9F4F0895AA1BF0
:10050000BB1B51E107C0AA1FBB1FA617B70710F0FE
:10051000A61BB70B881F991F5A95A9F78095909530
:10052000BC01CD010895A1E21A2EAA1BBB1BFD013F
:100530000DC0AA1FBB1FEE1FFF1FA217B307E407C2
:10054000F50720F0A21BB30BE40BF50B661F771F1A
:10055000881F991F1A9469F76095709580959095FA
:0E0560009B01AC01BD01CF010895F894FFCFBF
:10056E0053455420504F494E5400C8000C12120CE3
:10057E00000000000C1204081E0000000A15110AEB
:10058E00040000000305090B0B1818001F0E0E04C3
:10059E000404040401010505151515000E11111FA3
:0C05AE001F1F1F000000000000000000E4
:00000001FF
